:020000040800F2
:1000000070070020DD010008E5010008E701000895
:10001000E9010008EB010008ED0100080000000004
:10002000000000000000000000000000EF010008D8
:10003000F101000800000000F3010008910E000823
:10004000F7010008F7010008F7010008F7010008B0
:10005000F7010008F7010008F7010008F7010008A0
:10006000F7010008F7010008F7010008F701000890
:10007000F7010008F7010008F7010008F701000880
:10008000F7010008F7010008F7010008F701000870
:10009000F7010008F7010008F7010008F701000860
:1000A000F7010008F7010008F7010008F701000850
:1000B000F7010008F7010008F7010008F701000840
:1000C000F7010008F7010008F7010008F701000830
:1000D000F7010008090F0008F7010008E90F000800
:1000E000F7010008F7010008F7010008F701000810
:1000F000F7010008F7010008F7010008F701000800
:10010000F7010008F7010008F7010008F7010008EF
:10011000F7010008F7010008F7010008F7010008DF
:10012000F7010008F7010008F7010008F7010008CF
:1001300000F002F800F043F80AA090E8000C8244B6
:100140008344AAF10107DA4501D100F038F8AFF293
:10015000090EBAE80F0013F0010F18BFFB1A43F0A5
:100160000103184798130000B8130000103A24BF89
:1001700078C878C1FAD8520724BF30C830C144BF0C
:1001800004680C607047000000230024002500264E
:10019000103A28BF78C1FBD8520728BF30C148BFEA
:1001A0000B6070471FB59DE8030000F0FFF800F0FA
:1001B00077F81FBD10B5002000F0B7F810BD00F0B3
:1001C0005DF91146FFF7EEFF01F07EF900F095F9B9
:1001D00003B4FFF7EFFF03BC00F04AF9094880477A
:1001E00009480047FEE7FEE7FEE7FEE7FEE7FEE719
:1001F000FEE7FEE7FEE7FEE704480549054A064B31
:1002000070470000A90E00083101000870010020AD
:100210007007002070030020700300202DE9F041DA
:10022000074615460E46102000F050F804000AD08C
:100230006760C4E9026500F045F801682160046068
:100240000020BDE8F0810120FBE74FF0000200B57F
:10025000134694469646203922BFA0E80C50A0E8E9
:100260000C50B1F12001BFF4F7AF090728BFA0E897
:100270000C5048BF0CC05DF804EB890028BF40F863
:10028000042B08BF704748BF20F8022B11F0804FA5
:1002900018BF00F8012B7047704770477047000087
:1002A00070B5064C7C44064D7D4403E02068204434
:1002B0008047241DAC42F9D170BD000074120000CB
:1002C00074120000004870474801002070B50646CF
:1002D00000F050F8056806F10B0020F00704B44266
:1002E0009CBF002070BD2B466A68BAB11068A0425E
:1002F00010D304F1080188423CBF5068586007D30E
:100300005168101941601168091B01605860146040
:10031000101D70BD13465268002AE7D121462846B9
:1003200000F030F80028DED170BD2DE9F04106461E
:10033000FFF7C8FF8046454613E016B1E068B042BB
:100340000ED120682860D4E90101D8F800708847F0
:10035000204600F061F8D8F80000B842EBD100E088
:1003600025462C68002CE8D1BDE8F0810048704794
:1003700010010020004870471801002070477047A6
:100380007047704738B504460A4600206946AFF307
:100390000080002808BF38BD02460099204600F0C2
:1003A00092F8012038BD012000F0C9B8F8B5AFF3CC
:1003B0000080054600200C46102000BF0646A81904
:1003C000A0420DD9324669460020AFF300800700F5
:1003D00008BF00F0B4F80098A04218BF0546C41941
:1003E000FFF7C8FF05600746F01D20F0070046191B
:1003F000284600F00AF8B44208BFF8BDA21B3146F7
:100400003868BDE8F84000F05EB800210160C0E93E
:10041000011070471020704770B50446051FFFF7A4
:10042000A9FF0068002C14BF446870BD002C18BFE1
:10043000AC423CBF20466468F8D301680A18AA425F
:1004400018BF456003D12A68054611440160286839
:100450004119A1421CBF6C6070BD61686960216870
:100460000844286070BD002801D000F001B8704732
:1004700001491820ABBEFEE7260002007546FFF7D3
:1004800075FFAE4605006946534620F007008546D5
:1004900018B020B5FFF7B0FEBDE820404FF00006D1
:1004A0004FF000074FF000084FF0000B21F007015C
:1004B000AC46ACE8C009ACE8C009ACE8C009ACE89F
:1004C000C0098D467047034640688C46002818BF17
:1004D00088423CBF03464068F8D3186818448842F5
:1004E00007D00CF1030020F00700001D411A521A3A
:1004F0000146081D0A60FFF78FBF10B50446AFF331
:1005000000802046BDE81040FFF762BE70B505468A
:100510000C460A2000E06D1C00F018F835B1287870
:100520000028F8D102E0641C00F010F814B1207823
:100530000028F8D1BDE870400A2000F007B810B5D7
:1005400000F00CF8BDE81040FFF78DBF08B5694614
:100550008DF800000320ABBE08BD704710B5012820
:1005600005D0002103A0FFF7D1FF012010BD09A194
:10057000F8E7000053494752544D454D3A204F7516
:1005800074206F662068656170206D656D6F72798B
:10059000000000003A2048656170206D656D6F7243
:1005A0007920636F727275707465640000E0401E9C
:1005B0000028FCD17047000010B54448007848B1CD
:1005C000012000F047FC022000F044FC032000F072
:1005D00041FC10BD0EE03E480078012800D100E04B
:1005E00000200146192340F2DC52032000F01EFCDB
:1005F00000F084FA374890F90000354991F900106D
:100600008842E8D13448FFF7D1FF32490878A02367
:1006100047F23052002100F009FC302000F07CFC51
:100620002E48FFF7C3FF08E000202D490870012085
:1006300000F010FC2948FFF7B9FF2948007800288E
:10064000F2D1312000F068FC22490878A02347F25B
:100650003052012100F0EAFB1F48FFF7A7FF0FE02F
:100660001B480078012801D0012000E0002001464D
:10067000192340F2DC52032000F0D8FB00F03EFAD0
:10068000144890F90000124991F900108842E7D00F
:100690001148FFF78BFF0F490878A02347F230522B
:1006A000002100F0C3FB0C48FFF780FF09490878E0
:1006B000A02347F23052012100F0B8FB0648FFF7B3
:1006C00075FF00200249087000BF82E77600002015
:1006D000780000207700002080969800005A62027F
:1006E000740000202DE9F04102460025002600207C
:1006F00000230024002791F803C00CF00F0591F8A7
:1007000003C00CF0100CBCF1000F03D091F802C034
:100710004CEA050591F800C0BCF1000F31D0146817
:1007200000202BE04FF0010C0CFA00F3B1F800C0F0
:100730000CEA03069E4220D183004FF00F0C0CFA06
:1007400003F7BC4305FA03FC4CEA040491F803C028
:10075000BCF1280F06D14FF0010C0CFA00FCC2F8D6
:1007600014C00AE091F803C0BCF1480F05D14FF066
:10077000010C0CFA00FCC2F810C0401C0828D1D3B0
:100780001460B1F800C0BCF1FF0F34DD54680020E4
:100790002EE000F1080C4FF0010808FA0CF3B1F854
:1007A00000C00CEA03069E4221D183004FF00F0CDB
:1007B0000CFA03F7BC4305FA03FC4CEA040491F875
:1007C00003C0BCF1280F05D100F1080C08FA0CF8A1
:1007D000C2F8148091F803C0BCF1480F07D100F1B2
:1007E000080C4FF0010808FA0CF8C2F81080401C01
:1007F0000828CED35460BDE8F081024600209368FB
:100800000B400BB1012000E00020704741617047B0
:100810000161704770B5002100230F22C47804B332
:10082000154C246804F4E064C4F5E064210AC1F1C5
:100830000403CA40447804FA03F184781440214345
:1008400009010E4C0678A155047804F01F05012417
:10085000AC4005786D11AD0005F1E025C5F800410B
:1008600009E0047804F01F050124AC40044D06782B
:10087000761145F8264070BD0CED00E000E400E084
:1008800080E100E002490143024A11607047000024
:100890000000FA050CED00E010B5002807DA0A07A1
:1008A000140E054A00F00F031B1FD45403E00A077F
:1008B000130E024A135410BD18ED00E000E400E0EE
:1008C00029B1064AD2690243044BDA6104E0034AC3
:1008D000D2698243014BDA61704700000010024088
:1008E00029B1064A12690243044B1A6104E0034A23
:1008F00012698243014B1A617047000000100240E8
:1009000029B1064A92690243044B9A6104E0034A02
:1009100092698243014B9A617047000000100240C7
:1009200029B1064AD2680243044BDA6004E0034A64
:10093000D2688243014BDA60704700000010024029
:1009400030B500210022002400232D4D6D6805F0F4
:100950000C0121B1042905D0082923D105E0294D36
:10096000056022E0274D05601FE0254D6D6805F408
:100970007012234D6D6805F48034022505EB924218
:100980001CB9214D554305600BE01D4D6D6805F404
:1009900000351DB11C4D5543056002E0194D55430E
:1009A000056002E0174D056000BF00BF144D6D6883
:1009B00005F0F0010909154D6B5C0568DD404560E7
:1009C0000F4D6D6805F4E061090A104D6B5C4568D8
:1009D000DD4085600A4D6D6805F46051C90A0B4D14
:1009E0006B5C4568DD40C560054D6D6805F44041B0
:1009F000890B074D6B5CC568B5FBF3F5056130BD30
:100A00000010024000127A0000093D008100002021
:100A10009100002010B500F001F810BD0CB50020C9
:100A2000019000903348006840F4803031490860FC
:100A300000BF3048006800F4003000900198401C6E
:100A40000190009818B90198B0F5A06FF1D129482C
:100A5000006800F4003010B10120009001E0002097
:100A600000900098012843D12348006840F010000E
:100A7000214908600846006820F003000860084625
:100A8000006840F0020008601A4840681949486050
:100A90000846406848600846406840F48060486006
:100AA0000846406820F47C1048600846406840F4DE
:100AB000E81048600846006840F08070086000BF99
:100AC0000C48006800F000700028F9D00948406820
:100AD00020F00300074948600846406840F00200E3
:100AE000486000BF0348406800F00C000828F9D1B6
:100AF0000CBD0000001002400020024010B5802113
:100B00001148FFF77AFE10B90120104908704FF420
:100B100080710D48FFF771FE10B902200B49087073
:100B20004FF400610848FFF768FE10B10120084942
:100B300008704FF480510448FFF75FFE10B10220A7
:100B40000349087010BD000000100140770000202C
:100B5000780000202DE9F0478146884616461F465A
:100B60000025B9F1010F06D0B9F1020F04D0B9F197
:100B7000030F4BD124E000BF00241EE02946484665
:100B800000F090F83846FFF711FDB8F1000F03D1DF
:100B9000082090FBF6F003E06FF0070090FBF6F002
:100BA000284445B2002D02DA05F1080045B2082DAF
:100BB00002DBA5F1080045B2641C042CDEDB25E055
:100BC00080211548FFF722FEB8F1000F04D1402123
:100BD0001148FFF71BFE03E040210F48FFF718FE06
:100BE000002410E020210C48FFF712FE07EB47011C
:100BF0008808FFF7DBFC20210748FFF707FEB8084D
:100C0000FFF7D4FC641CB442ECDB00BF00BF4846D5
:100C100000F020F9BDE8F0870008014008B5012187
:100C20000420FFF76DFE1E20ADF8000003208DF8B4
:100C3000020010208DF8030069461948FFF752FDA5
:100C40001E211748FFF7E2FD4FF4F050ADF8000009
:100C500003208DF8020010208DF80300694610482B
:100C6000FFF740FD4FF4F0510D48FFF7CFFD48F27C
:100C7000E000ADF8000003208DF8020010208DF890
:100C8000030069460648FFF72DFDE0210448FFF701
:100C9000BDFD4FF400410248FFF7BAFD08BD00005A
:100CA0000008014070B504460D46082D1AD2DFE851
:100CB00005F0041A31475E748BA1012C07D108217D
:100CC0005948FFF7A3FD16215748FFF7A1FD022C55
:100CD00008D1A1025448FFF799FD4FF4B051524892
:100CE000FFF796FD9DE0012C07D118214E48FFF734
:100CF0008DFD06214C48FFF78BFD022C09D14FF4E6
:100D0000C0514948FFF782FD4FF4C0614648FFF7E4
:100D10007FFD86E0012C07D110214348FFF776FDC7
:100D20000E214148FFF774FD022C08D1E1023E4834
:100D3000FFF76CFD4FF460613B48FFF769FD70E021
:100D4000012C07D112213848FFF760FD0C213648ED
:100D5000FFF75EFD022C09D14FF490513248FFF7A6
:100D600055FD4FF440613048FFF752FD59E0012C2A
:100D700007D102212C48FFF749FD1C212A48FFF723
:100D800047FD022C08D121022748FFF73FFD4FF411
:100D9000E0512548FFF73CFD43E0012C07D1062137
:100DA0002148FFF733FD18211F48FFF731FD022CC2
:100DB00009D14FF4C0611C48FFF728FD4FF4C05122
:100DC0001948FFF725FD2CE0012C07D10421164816
:100DD000FFF71CFD1A211448FFF71AFD022C08D159
:100DE00061021148FFF712FD4FF4D0510E48FFF792
:100DF0000FFD16E0012C07D10C210B48FFF706FD73
:100E000012210948FFF704FD022C09D14FF440617B
:100E10000548FFF7FBFC4FF490510348FFF7F8FC3F
:100E200000BF00BFE8B270BD000801402DE9F041ED
:100E30000746884614461D46002606E0234604223F
:100E400041463846FFF786FE761CAE42F6D3BDE833
:100E5000F081000010B50446012C04D0022C07D00C
:100E6000032C10D10AE01E210848FFF7CFFC0AE04E
:100E70004FF4F0510548FFF7C9FC04E08021034816
:100E8000FFF7C6FC00BF00BF10BD00000008014016
:100E90000448036840685A1C40F1000001490A6098
:100EA000486070479800002010B51348006840F073
:100EB00001001149086008464068104908400E4981
:100EC0004860084600680E4908400B49086008461B
:100ED000006820F4802008600846406820F4FE0086
:100EE00048604FF41F008860FFF794FD4FF00060EA
:100EF0000449086010BD0000001002400000FFF827
:100F0000FFFFF6FE08ED00E010B50248006800F0B3
:100F100047FA10BDB800002010B504462146054828
:100F200000F0C3F900BF8021024800F0F1F800286A
:100F3000F9D010BD0048004000B587B001218804F9
:100F4000FFF7BEFC01210820FFF7DAFC244800F07F
:100F500091F84FF48060ADF8180018208DF81B0050
:100F600001208DF81A0006A91E48FFF7BBFB4FF4BD
:100F70000060ADF8180004208DF81B0006A9194880
:100F8000FFF7B0FB27208DF8140001208DF8150025
:100F900003208DF8160001208DF8170005A8FFF733
:100FA00039FC4FF4E13001900020ADF80800ADF8B5
:100FB0000A00ADF80C00ADF810000C20ADF80E00E2
:100FC00001A9074800F000F9012240F22551044828
:100FD00000F0D5F80121024800F03FF807B000BD4D
:100FE00000480040000C014010B540F225510F4868
:100FF00000F09BF828B10D4800F052F940B20C49BE
:1010000008700B480078712802D101200949087046
:1010100007480078302802D131200749087040F293
:101020002551024800F00AF810BD000000480040B9
:1010300080000020750000207400002010B5002200
:10104000002340F66A14A14200D100BF0A12012415
:101050009440A3B2DC43048010BD21B1828942F4E4
:101060000052828104E082894DF6FF731A4082812A
:101070007047000010B504462048844209D1012180
:101080008803FFF74DFC00214FF48040FFF748FC38
:1010900032E01B48844209D101214804FFF720FCBB
:1010A00000214FF40030FFF71BFC25E01548844277
:1010B00009D101218804FFF713FC00214FF480209F
:1010C000FFF70EFC18E01048844209D10121C80442
:1010D000FFF706FC00214FF40020FFF701FC0BE0B6
:1010E0000A48844208D101210805FFF7F9FB0021D5
:1010F0004FF48010FFF7F4FB10BD000000380140F2
:101100000044004000480040004C004000500040B7
:1011100002460020B1F5007F00D100BF13880B40CC
:101120000BB1012000E00020704770B5024600249A
:1011300000230025002040F66A16B14200D100BF0E
:10114000C1F3421501F01F03012606FA03F3012D36
:1011500002D19689334006E0022D02D1168A33402F
:1011600001E0968A33400C12012606FA04F4168830
:10117000344013B10CB1012000E0002070BDF0B587
:101180000346002400260025002040F66A17B942D5
:1011900000D100BF1846C1F3421401F01F06012719
:1011A00007FA06F5012C01D10C3004E0022C01D124
:1011B000103000E014301AB107682F43076002E0D6
:1011C0000768AF430760F0BD2DE9F04786B00546DC
:1011D0000E460024A24600BFA1460027B08900B1F8
:1011E00000BF2F462C8A4CF6FF700440F088044361
:1011F0002C82AC894EF6F3100440B0883189084344
:10120000718908430443AC81AC8A4FF6FF40044027
:10121000B0890443AC8201A8FFF792FB1F488742C4
:1012200002D1DDF810A001E0DDF80CA0A88900F4DF
:10123000004040B10AEBCA0000EB0A1031684900D7
:10124000B0FBF1F807E00AEBCA0000EB0A103168C6
:101250008900B0FBF1F86420B8FBF0F0040120092C
:10126000642101FB1089A88900F4004040B13220BC
:1012700000EBC900B0FBF1F000F00700044308E008
:10128000322000EB09106421B0FBF1F000F00F00F8
:1012900004432C8106B0BDE8F0870000003801400F
:1012A00001468888C0F308007047C1F308028280B5
:1012B0007047000008B501211020FFF721FB8020B6
:1012C000ADF8000001208DF8020004208DF8030025
:1012D00069460248FFF706FA08BD00000010014009
:1012E00008B501211020FFF70BFB4FF40060ADF8AB
:1012F000000001208DF8020004208DF803006946EB
:101300000148FFF7EFF908BD0010014008B50121C1
:101310001020FFF7F5FA4FF48050ADF800000120DF
:101320008DF8020004208DF8030069460148FFF79C
:10133000D9F908BD0010014008B501210420FFF7CC
:10134000DFFA4FF48070ADF8000003208DF8020042
:1013500010208DF8030069460448FFF7C3F94FF4E5
:1013600080710248FFF754FA08BD000000080140F0
:1013700090F840305B1C03F03F02436C934202D074
:10138000036CC1540264704710B5044640212046E6
:10139000FEF75BFF002020646064204610BD000063
:1013A00070B5044694F848100E4A52F8210040F2F5
:1013B0002551FFF7BAFEA0B194F84810094A52F837
:1013C0002100FFF76DFFC5B229462046FFF7D0FF89
:1013D00094F84810034A52F8210040F22551FFF7D3
:1013E0002DFE70BDA000002070B504460D462046BD
:1013F000FFF7CAFF044684F8485094F8480008B93B
:101400000748046094F84800012801D105480460A9
:1014100094F84800022801D103480460204670BDBA
:10142000B8000020BC000020C00000207047000071
:1014300010B500210448FFF7D7FF0446034A0449CA
:10144000FEF7ECFE10BD0000C40000200000000804
:101450002D14000810B507480068401C05490860B5
:101460000024FFF74BFB0448007808B1FFF7A4F80D
:1014700010BD00006C0000207800002010B5002096
:101480000F4A106050600F4CB4F1807F00D311E020
:1014900024F07F40401E4FF0E02148610F214FF0C3
:1014A000FF30FFF7F9F900204FF0E02188610720B5
:1014B000086100BF0021481EFFF7EEF910BD0000D3
:1014C0009800002080EE3600FFF7EEFCFFF7D6FF15
:1014D0004FF4A060FFF7D6F9FFF7A0FBFFF72CFF52
:1014E000FFF7FEFEFFF712FFFFF7E4FEFFF7E2FE55
:1014F000FFF722FD01E0FFF7ADFFFCE72015000834
:1015000000000020C40000006C010008E415000881
:10151000C4000020AC0600008801000815FFFFFF92
:101520006861C93D124EB53DB879DFBF0000803F0C
:101530000000803F0000803F90D727BB9C7AB1BC61
:101540001F76A73C0000803F0000803F0000803FE6
:10155000000000000000000000000000000000008B
:10156000000000000000000000000000000000007B
:10157000000000000000000000000000000000006B
:101580000000A0410000000000000040000000003A
:10159000000000000000000000000000000000004B
:1015A00031000000000102030401020304060708E1
:1015B000090204060800000000000000000000000E
:1015C000003801400044004000480040000801404D
:1015D00000080140000C0140000000000000000075
:0415E0000000000007
:0400000508000131BD
:00000001FF
